{
  "contractName": "Crowdfunding",
  "abi": [
    {
      "inputs": [],
      "stateMutability": "nonpayable",
      "type": "constructor"
    },
    {
      "anonymous": false,
      "inputs": [
        {
          "indexed": false,
          "internalType": "uint256",
          "name": "id",
          "type": "uint256"
        },
        {
          "indexed": false,
          "internalType": "string",
          "name": "name",
          "type": "string"
        },
        {
          "indexed": false,
          "internalType": "string",
          "name": "desc",
          "type": "string"
        },
        {
          "indexed": false,
          "internalType": "address",
          "name": "owner",
          "type": "address"
        },
        {
          "indexed": false,
          "internalType": "uint256",
          "name": "endDate",
          "type": "uint256"
        },
        {
          "indexed": false,
          "internalType": "bool",
          "name": "exists",
          "type": "bool"
        },
        {
          "indexed": false,
          "internalType": "uint256",
          "name": "balance",
          "type": "uint256"
        },
        {
          "indexed": false,
          "internalType": "uint256",
          "name": "target",
          "type": "uint256"
        }
      ],
      "name": "ProjectCreated",
      "type": "event"
    },
    {
      "anonymous": false,
      "inputs": [
        {
          "indexed": false,
          "internalType": "uint256",
          "name": "id",
          "type": "uint256"
        },
        {
          "indexed": false,
          "internalType": "string",
          "name": "name",
          "type": "string"
        },
        {
          "indexed": false,
          "internalType": "uint256",
          "name": "balance",
          "type": "uint256"
        }
      ],
      "name": "ProjectEnded",
      "type": "event"
    },
    {
      "anonymous": false,
      "inputs": [
        {
          "indexed": false,
          "internalType": "uint256",
          "name": "id",
          "type": "uint256"
        },
        {
          "indexed": false,
          "internalType": "string",
          "name": "name",
          "type": "string"
        },
        {
          "indexed": false,
          "internalType": "string",
          "name": "desc",
          "type": "string"
        },
        {
          "indexed": false,
          "internalType": "address",
          "name": "owner",
          "type": "address"
        },
        {
          "indexed": false,
          "internalType": "uint256",
          "name": "endDate",
          "type": "uint256"
        },
        {
          "indexed": false,
          "internalType": "bool",
          "name": "exists",
          "type": "bool"
        },
        {
          "indexed": false,
          "internalType": "uint256",
          "name": "balance",
          "type": "uint256"
        },
        {
          "indexed": false,
          "internalType": "uint256",
          "name": "target",
          "type": "uint256"
        }
      ],
      "name": "ProjectFunded",
      "type": "event"
    },
    {
      "inputs": [],
      "name": "name",
      "outputs": [
        {
          "internalType": "string",
          "name": "",
          "type": "string"
        }
      ],
      "stateMutability": "view",
      "type": "function"
    },
    {
      "inputs": [],
      "name": "projectCount",
      "outputs": [
        {
          "internalType": "uint256",
          "name": "",
          "type": "uint256"
        }
      ],
      "stateMutability": "view",
      "type": "function"
    },
    {
      "inputs": [
        {
          "internalType": "uint256",
          "name": "",
          "type": "uint256"
        }
      ],
      "name": "projects",
      "outputs": [
        {
          "internalType": "uint256",
          "name": "id",
          "type": "uint256"
        },
        {
          "internalType": "string",
          "name": "name",
          "type": "string"
        },
        {
          "internalType": "string",
          "name": "desc",
          "type": "string"
        },
        {
          "internalType": "address",
          "name": "owner",
          "type": "address"
        },
        {
          "internalType": "uint256",
          "name": "endDate",
          "type": "uint256"
        },
        {
          "internalType": "bool",
          "name": "exists",
          "type": "bool"
        },
        {
          "internalType": "uint256",
          "name": "balance",
          "type": "uint256"
        },
        {
          "internalType": "uint256",
          "name": "target",
          "type": "uint256"
        }
      ],
      "stateMutability": "view",
      "type": "function"
    },
    {
      "inputs": [
        {
          "internalType": "string",
          "name": "_name",
          "type": "string"
        },
        {
          "internalType": "string",
          "name": "_desc",
          "type": "string"
        },
        {
          "internalType": "uint256",
          "name": "_endDate",
          "type": "uint256"
        },
        {
          "internalType": "uint256",
          "name": "_target",
          "type": "uint256"
        }
      ],
      "name": "createProject",
      "outputs": [],
      "stateMutability": "nonpayable",
      "type": "function"
    },
    {
      "inputs": [
        {
          "internalType": "uint256",
          "name": "_id",
          "type": "uint256"
        }
      ],
      "name": "getProjectById",
      "outputs": [
        {
          "internalType": "string",
          "name": "_name",
          "type": "string"
        },
        {
          "internalType": "string",
          "name": "_desc",
          "type": "string"
        },
        {
          "internalType": "uint256",
          "name": "_target",
          "type": "uint256"
        },
        {
          "internalType": "uint256",
          "name": "_endDate",
          "type": "uint256"
        },
        {
          "internalType": "address",
          "name": "_owner",
          "type": "address"
        },
        {
          "internalType": "uint256",
          "name": "_balance",
          "type": "uint256"
        }
      ],
      "stateMutability": "view",
      "type": "function"
    },
    {
      "inputs": [
        {
          "internalType": "uint256",
          "name": "_id",
          "type": "uint256"
        }
      ],
      "name": "fundProject",
      "outputs": [],
      "stateMutability": "payable",
      "type": "function"
    },
    {
      "inputs": [
        {
          "internalType": "uint256",
          "name": "_id",
          "type": "uint256"
        }
      ],
      "name": "closeProject",
      "outputs": [],
      "stateMutability": "nonpayable",
      "type": "function"
    },
    {
      "inputs": [],
      "name": "balanceOfProjects",
      "outputs": [
        {
          "internalType": "uint256",
          "name": "",
          "type": "uint256"
        }
      ],
      "stateMutability": "view",
      "type": "function"
    },
    {
      "inputs": [
        {
          "internalType": "uint256",
          "name": "_id",
          "type": "uint256"
        }
      ],
      "name": "dispatchFunds",
      "outputs": [],
      "stateMutability": "payable",
      "type": "function"
    }
  ],
  "bytecode": "0x608060405260006001553480156200001657600080fd5b506040518060400160405280601d81526020017f4d61726b6574706c61636520666f722063726f77642066756e64696e6700000081525060009080519060200190620000649291906200006b565b5062000180565b82805462000079906200011b565b90600052602060002090601f0160209004810192826200009d5760008555620000e9565b82601f10620000b857805160ff1916838001178555620000e9565b82800160010185558215620000e9579182015b82811115620000e8578251825591602001919060010190620000cb565b5b509050620000f89190620000fc565b5090565b5b8082111562000117576000816000905550600101620000fd565b5090565b600060028204905060018216806200013457607f821691505b602082108114156200014b576200014a62000151565b5b50919050565b7f4e487b7100000000000000000000000000000000000000000000000000000000600052602260045260246000fd5b611f2080620001906000396000f3fe6080604052600436106100865760003560e01c806393dc12e61161005957806393dc12e61461014157806394ba97091461016a578063b0036ac714610193578063bee5cdca146101af578063d9812581146101f157610086565b806306fdde031461008b578063107046bd146100b657806336fbad26146100fa5780636c563abe14610125575b600080fd5b34801561009757600080fd5b506100a061021c565b6040516100ad919061186a565b60405180910390f35b3480156100c257600080fd5b506100dd60048036038101906100d8919061171d565b6102aa565b6040516100f1989796959493929190611a42565b60405180910390f35b34801561010657600080fd5b5061010f61042f565b60405161011c919061199b565b60405180910390f35b61013f600480360381019061013a919061171d565b610435565b005b34801561014d57600080fd5b506101686004803603810190610163919061171d565b6108d2565b005b34801561017657600080fd5b50610191600480360381019061018c919061168a565b610eab565b005b6101ad60048036038101906101a8919061171d565b611071565b005b3480156101bb57600080fd5b506101d660048036038101906101d1919061171d565b611384565b6040516101e89695949392919061188c565b60405180910390f35b3480156101fd57600080fd5b50610206611562565b604051610213919061199b565b60405180910390f35b6000805461022990611c70565b80601f016020809104026020016040519081016040528092919081815260200182805461025590611c70565b80156102a25780601f10610277576101008083540402835291602001916102a2565b820191906000526020600020905b81548152906001019060200180831161028557829003601f168201915b505050505081565b60026020528060005260406000206000915090508060000154908060010180546102d390611c70565b80601f01602080910402602001604051908101604052809291908181526020018280546102ff90611c70565b801561034c5780601f106103215761010080835404028352916020019161034c565b820191906000526020600020905b81548152906001019060200180831161032f57829003601f168201915b50505050509080600201805461036190611c70565b80601f016020809104026020016040519081016040528092919081815260200182805461038d90611c70565b80156103da5780601f106103af576101008083540402835291602001916103da565b820191906000526020600020905b8154815290600101906020018083116103bd57829003601f168201915b5050505050908060030160009054906101000a900473ffffffffffffffffffffffffffffffffffffffff16908060040154908060050160009054906101000a900460ff16908060060154908060070154905088565b60015481565b600060026000838152602001908152602001600020604051806101000160405290816000820154815260200160018201805461047090611c70565b80601f016020809104026020016040519081016040528092919081815260200182805461049c90611c70565b80156104e95780601f106104be576101008083540402835291602001916104e9565b820191906000526020600020905b8154815290600101906020018083116104cc57829003601f168201915b5050505050815260200160028201805461050290611c70565b80601f016020809104026020016040519081016040528092919081815260200182805461052e90611c70565b801561057b5780601f106105505761010080835404028352916020019161057b565b820191906000526020600020905b81548152906001019060200180831161055e57829003601f168201915b505050505081526020016003820160009054906101000a900473ffffffffffffffffffffffffffffffffffffffff1673ffffffffffffffffffffffffffffffffffffffff1673ffffffffffffffffffffffffffffffffffffffff168152602001600482015481526020016005820160009054906101000a900460ff16151515158152602001600682015481526020016007820154815250509050600081606001519050600082600001511180156106385750600154826000015111155b61064157600080fd5b81608001514210610687576040517f08c379a000000000000000000000000000000000000000000000000000000000815260040161067e9061197b565b60405180910390fd5b3373ffffffffffffffffffffffffffffffffffffffff168173ffffffffffffffffffffffffffffffffffffffff1614156106f6576040517f08c379a00000000000000000000000000000000000000000000000000000000081526004016106ed9061191b565b60405180910390fd5b8160a0015161070457600080fd5b6000341161071157600080fd5b348260c0018181516107239190611b7e565b91508181525050816002600085815260200190815260200160002060008201518160000155602082015181600101908051906020019061076492919061156a565b50604082015181600201908051906020019061078192919061156a565b5060608201518160030160006101000a81548173ffffffffffffffffffffffffffffffffffffffff021916908373ffffffffffffffffffffffffffffffffffffffff1602179055506080820151816004015560a08201518160050160006101000a81548160ff02191690831515021790555060c0820151816006015560e08201518160070155905050346003600085815260200190815260200160002060003373ffffffffffffffffffffffffffffffffffffffff1673ffffffffffffffffffffffffffffffffffffffff168152602001908152602001600020600082825461086a9190611b7e565b925050819055507f36d362f344b370ff4a36908fb306e5a24c3bcf51dca8a6136366e0b485cec7a16001548360200151846040015133866080015160018860c001518960e001516040516108c5989796959493929190611a42565b60405180910390a1505050565b600060026000838152602001908152602001600020604051806101000160405290816000820154815260200160018201805461090d90611c70565b80601f016020809104026020016040519081016040528092919081815260200182805461093990611c70565b80156109865780601f1061095b57610100808354040283529160200191610986565b820191906000526020600020905b81548152906001019060200180831161096957829003601f168201915b5050505050815260200160028201805461099f90611c70565b80601f01602080910402602001604051908101604052809291908181526020018280546109cb90611c70565b8015610a185780601f106109ed57610100808354040283529160200191610a18565b820191906000526020600020905b8154815290600101906020018083116109fb57829003601f168201915b505050505081526020016003820160009054906101000a900473ffffffffffffffffffffffffffffffffffffffff1673ffffffffffffffffffffffffffffffffffffffff1673ffffffffffffffffffffffffffffffffffffffff168152602001600482015481526020016005820160009054906101000a900460ff161515151581526020016006820154815260200160078201548152505090506000816060015190503373ffffffffffffffffffffffffffffffffffffffff168173ffffffffffffffffffffffffffffffffffffffff1614610b29576040517f08c379a0000000000000000000000000000000000000000000000000000000008152600401610b209061195b565b60405180910390fd5b600115158260a00151151514610b74576040517f08c379a0000000000000000000000000000000000000000000000000000000008152600401610b6b906118fb565b60405180910390fd5b8160800151421115610d285760008260a00190151590811515815250508160026000858152602001908152602001600020600082015181600001556020820151816001019080519060200190610bcb92919061156a565b506040820151816002019080519060200190610be892919061156a565b5060608201518160030160006101000a81548173ffffffffffffffffffffffffffffffffffffffff021916908373ffffffffffffffffffffffffffffffffffffffff1602179055506080820151816004015560a08201518160050160006101000a81548160ff02191690831515021790555060c0820151816006015560e082015181600701559050503073ffffffffffffffffffffffffffffffffffffffff1663b0036ac783600001516040518263ffffffff1660e01b8152600401610cae919061199b565b600060405180830381600087803b158015610cc857600080fd5b505af1158015610cdc573d6000803e3d6000fd5b505050507f0d77a7c0d00f191be30313fd4836ac7cefb3488b8c158ae53fc717a858675770826000015183602001518460c00151604051610d1f93929190611ace565b60405180910390a15b81608001514210610d6e576040517f08c379a0000000000000000000000000000000000000000000000000000000008152600401610d659061193b565b60405180910390fd5b60008260a00190151590811515815250508160026000858152602001908152602001600020600082015181600001556020820151816001019080519060200190610db992919061156a565b506040820151816002019080519060200190610dd692919061156a565b5060608201518160030160006101000a81548173ffffffffffffffffffffffffffffffffffffffff021916908373ffffffffffffffffffffffffffffffffffffffff1602179055506080820151816004015560a08201518160050160006101000a81548160ff02191690831515021790555060c0820151816006015560e082015181600701559050507f0d77a7c0d00f191be30313fd4836ac7cefb3488b8c158ae53fc717a858675770826000015183602001518460c00151604051610e9e93929190611ace565b60405180910390a1505050565b6000845111610eb957600080fd5b60008111610ec657600080fd5b60008211610ed357600080fd5b60016000815480929190610ee690611cd3565b919050555060405180610100016040528060015481526020018581526020018481526020013373ffffffffffffffffffffffffffffffffffffffff1681526020018381526020016001151581526020016000815260200182815250600260006001548152602001908152602001600020600082015181600001556020820151816001019080519060200190610f7c92919061156a565b506040820151816002019080519060200190610f9992919061156a565b5060608201518160030160006101000a81548173ffffffffffffffffffffffffffffffffffffffff021916908373ffffffffffffffffffffffffffffffffffffffff1602179055506080820151816004015560a08201518160050160006101000a81548160ff02191690831515021790555060c0820151816006015560e082015181600701559050507f318ae2105e4ed352c2e4ff310936d968690d612618b61006796a8a7709a1b0086001548585338660016000886040516110639897969594939291906119b6565b60405180910390a150505050565b60006002600083815260200190815260200160002060405180610100016040529081600082015481526020016001820180546110ac90611c70565b80601f01602080910402602001604051908101604052809291908181526020018280546110d890611c70565b80156111255780601f106110fa57610100808354040283529160200191611125565b820191906000526020600020905b81548152906001019060200180831161110857829003601f168201915b5050505050815260200160028201805461113e90611c70565b80601f016020809104026020016040519081016040528092919081815260200182805461116a90611c70565b80156111b75780601f1061118c576101008083540402835291602001916111b7565b820191906000526020600020905b81548152906001019060200180831161119a57829003601f168201915b505050505081526020016003820160009054906101000a900473ffffffffffffffffffffffffffffffffffffffff1673ffffffffffffffffffffffffffffffffffffffff1673ffffffffffffffffffffffffffffffffffffffff168152602001600482015481526020016005820160009054906101000a900460ff16151515158152602001600682015481526020016007820154815250509050806060015173ffffffffffffffffffffffffffffffffffffffff166108fc8260c001519081150290604051600060405180830381858888f1935050505015801561129f573d6000803e3d6000fd5b5080600260008481526020019081526020016000206000820151816000015560208201518160010190805190602001906112da92919061156a565b5060408201518160020190805190602001906112f792919061156a565b5060608201518160030160006101000a81548173ffffffffffffffffffffffffffffffffffffffff021916908373ffffffffffffffffffffffffffffffffffffffff1602179055506080820151816004015560a08201518160050160006101000a81548160ff02191690831515021790555060c0820151816006015560e082015181600701559050505050565b6060806000806000806002600088815260200190815260200160002060010160026000898152602001908152602001600020600201600260008a815260200190815260200160002060070154600260008b815260200190815260200160002060040154600260008c815260200190815260200160002060030160009054906101000a900473ffffffffffffffffffffffffffffffffffffffff16600260008d81526020019081526020016000206006015485805461144190611c70565b80601f016020809104026020016040519081016040528092919081815260200182805461146d90611c70565b80156114ba5780601f1061148f576101008083540402835291602001916114ba565b820191906000526020600020905b81548152906001019060200180831161149d57829003601f168201915b505050505095508480546114cd90611c70565b80601f01602080910402602001604051908101604052809291908181526020018280546114f990611c70565b80156115465780601f1061151b57610100808354040283529160200191611546565b820191906000526020600020905b81548152906001019060200180831161152957829003601f168201915b5050505050945095509550955095509550955091939550919395565b600047905090565b82805461157690611c70565b90600052602060002090601f01602090048101928261159857600085556115df565b82601f106115b157805160ff19168380011785556115df565b828001600101855582156115df579182015b828111156115de5782518255916020019190600101906115c3565b5b5090506115ec91906115f0565b5090565b5b808211156116095760008160009055506001016115f1565b5090565b600061162061161b84611b31565b611b0c565b90508281526020810184848401111561163857600080fd5b611643848285611c2e565b509392505050565b600082601f83011261165c57600080fd5b813561166c84826020860161160d565b91505092915050565b60008135905061168481611ed3565b92915050565b600080600080608085870312156116a057600080fd5b600085013567ffffffffffffffff8111156116ba57600080fd5b6116c68782880161164b565b945050602085013567ffffffffffffffff8111156116e357600080fd5b6116ef8782880161164b565b935050604061170087828801611675565b925050606061171187828801611675565b91505092959194509250565b60006020828403121561172f57600080fd5b600061173d84828501611675565b91505092915050565b61174f81611bd4565b82525050565b61175e81611be6565b82525050565b61176d81611c1c565b82525050565b600061177e82611b62565b6117888185611b6d565b9350611798818560208601611c3d565b6117a181611da9565b840191505092915050565b60006117b9601983611b6d565b91506117c482611dba565b602082019050919050565b60006117dc603383611b6d565b91506117e782611de3565b604082019050919050565b60006117ff601883611b6d565b915061180a82611e32565b602082019050919050565b6000611822602183611b6d565b915061182d82611e5b565b604082019050919050565b6000611845601283611b6d565b915061185082611eaa565b602082019050919050565b61186481611c12565b82525050565b600060208201905081810360008301526118848184611773565b905092915050565b600060c08201905081810360008301526118a68189611773565b905081810360208301526118ba8188611773565b90506118c9604083018761185b565b6118d6606083018661185b565b6118e36080830185611746565b6118f060a083018461185b565b979650505050505050565b60006020820190508181036000830152611914816117ac565b9050919050565b60006020820190508181036000830152611934816117cf565b9050919050565b60006020820190508181036000830152611954816117f2565b9050919050565b6000602082019050818103600083015261197481611815565b9050919050565b6000602082019050818103600083015261199481611838565b9050919050565b60006020820190506119b0600083018461185b565b92915050565b6000610100820190506119cc600083018b61185b565b81810360208301526119de818a611773565b905081810360408301526119f28189611773565b9050611a016060830188611746565b611a0e608083018761185b565b611a1b60a0830186611755565b611a2860c0830185611764565b611a3560e083018461185b565b9998505050505050505050565b600061010082019050611a58600083018b61185b565b8181036020830152611a6a818a611773565b90508181036040830152611a7e8189611773565b9050611a8d6060830188611746565b611a9a608083018761185b565b611aa760a0830186611755565b611ab460c083018561185b565b611ac160e083018461185b565b9998505050505050505050565b6000606082019050611ae3600083018661185b565b8181036020830152611af58185611773565b9050611b04604083018461185b565b949350505050565b6000611b16611b27565b9050611b228282611ca2565b919050565b6000604051905090565b600067ffffffffffffffff821115611b4c57611b4b611d7a565b5b611b5582611da9565b9050602081019050919050565b600081519050919050565b600082825260208201905092915050565b6000611b8982611c12565b9150611b9483611c12565b9250827fffffffffffffffffffffffffffffffffffffffffffffffffffffffffffffffff03821115611bc957611bc8611d1c565b5b828201905092915050565b6000611bdf82611bf2565b9050919050565b60008115159050919050565b600073ffffffffffffffffffffffffffffffffffffffff82169050919050565b6000819050919050565b6000611c2782611c12565b9050919050565b82818337600083830152505050565b60005b83811015611c5b578082015181840152602081019050611c40565b83811115611c6a576000848401525b50505050565b60006002820490506001821680611c8857607f821691505b60208210811415611c9c57611c9b611d4b565b5b50919050565b611cab82611da9565b810181811067ffffffffffffffff82111715611cca57611cc9611d7a565b5b80604052505050565b6000611cde82611c12565b91507fffffffffffffffffffffffffffffffffffffffffffffffffffffffffffffffff821415611d1157611d10611d1c565b5b600182019050919050565b7f4e487b7100000000000000000000000000000000000000000000000000000000600052601160045260246000fd5b7f4e487b7100000000000000000000000000000000000000000000000000000000600052602260045260246000fd5b7f4e487b7100000000000000000000000000000000000000000000000000000000600052604160045260246000fd5b6000601f19601f8301169050919050565b7f50726f6a65637420697320696e206f70656e2073746174652e00000000000000600082015250565b7f4f776e65722063616e27742066756e64207468652070726f6a6563742063726560008201527f61746564206279207468656d73656c7665732e00000000000000000000000000602082015250565b7f50726f6a656374206973207374696c6c206163746976652e0000000000000000600082015250565b7f4f6e6c79204f776e65722063616e20636c6f7365207468652070726f6a65637460008201527f2e00000000000000000000000000000000000000000000000000000000000000602082015250565b7f50726f6a65637420697320636c6f7365642e0000000000000000000000000000600082015250565b611edc81611c12565b8114611ee757600080fd5b5056fea26469706673582212207f46c15bb7dc95ccf61d30c0fc624b37ef1ac6793ec959c7fd4e2a0b03c2c2a164736f6c63430008040033",
  "immutableReferences": {},
  "source": "// SPDX-License-Identifier: GPL-3.0\npragma solidity ^0.8.1;\n\n/* \nTODO\n    - Create a Project : createProject\n    - Fetch all Projects : projects\n    - Read a Project : getProjectById\n    - Fund an existing Project : fundProject\n    - Close the Project manually by owner or if endDate expires : closeProject\n    - Get total Contract Balance : balanceOfProjects\n    - Dispatch the ethers to project Owner : dispatchFunds\n*/\ncontract Crowdfunding {\n  string public name;\n  uint256 public projectCount = 0;\n  mapping(uint256 => Project) public projects;\n  mapping(uint256 => mapping(address => uint256)) contributors;\n\n  struct Project {\n    uint256 id;\n    string name;\n    string desc;\n    address owner;\n    uint256 endDate;\n    bool exists;\n    uint256 balance;\n    uint256 target;\n  }\n\n  event ProjectCreated(\n    uint256 id,\n    string name,\n    string desc,\n    address owner,\n    uint256 endDate,\n    bool exists,\n    uint256 balance,\n    uint256 target\n  );\n\n  event ProjectFunded(\n    uint256 id,\n    string name,\n    string desc,\n    address owner,\n    uint256 endDate,\n    bool exists,\n    uint256 balance,\n    uint256 target\n  );\n\n  event ProjectEnded(uint256 id, string name, uint256 balance);\n\n  constructor() {\n    name = 'Marketplace for crowd funding';\n  }\n\n  function createProject(\n    string memory _name,\n    string memory _desc,\n    uint256 _endDate,\n    uint256 _target\n  ) public {\n    // Make sure parameters are correct and supplied\n    // Require a valid name\n    require(bytes(_name).length > 0);\n    // Require a valid target\n    require(_target > 0);\n    // Require a valid endDate\n    require(_endDate > 0);\n    //Increment Project Count\n    projectCount++;\n    // Create the project\n    projects[projectCount] = Project(\n      projectCount,\n      _name,\n      _desc,\n      msg.sender,\n      _endDate,\n      true,\n      0,\n      _target\n    );\n    // trigger an event\n    emit ProjectCreated(projectCount, _name, _desc, msg.sender, _endDate, true, 0, _target);\n  }\n\n  function getProjectById(uint256 _id)\n    public\n    view\n    returns (\n      string memory _name,\n      string memory _desc,\n      uint256 _target,\n      uint256 _endDate,\n      address _owner,\n      uint256 _balance\n    )\n  {\n    //TODO Check if project Exists\n    return (\n      projects[_id].name,\n      projects[_id].desc,\n      projects[_id].target,\n      projects[_id].endDate,\n      projects[_id].owner,\n      projects[_id].balance\n    );\n  }\n\n  function fundProject(uint256 _id) public payable {\n    // Fetch the Project\n    Project memory _project = projects[_id];\n    //Fetch the Project Owner\n    address _owner = _project.owner;\n    // Make sure the project has valid ID\n    require(_project.id > 0 && _project.id <= projectCount);\n    // Check if the Project end Date is greater than now\n    require(block.timestamp < _project.endDate, 'Project is closed.');\n    // Check if the owner is trying to fund and reject it\n    require(_owner != msg.sender, \"Owner can't fund the project created by themselves.\");\n    // Make Sure the Project is active\n    require(_project.exists);\n    //Sent ether must be greater than 0\n    require(msg.value > 0);\n    // Fund it\n    _project.balance += msg.value;\n    // Update the Project\n    projects[_id] = _project;\n    // contributors can again send the money\n    contributors[_id][msg.sender] += msg.value;\n    // Trigger the event\n    emit ProjectFunded(\n      projectCount,\n      _project.name,\n      _project.desc,\n      msg.sender,\n      _project.endDate,\n      true,\n      _project.balance,\n      _project.target\n    );\n  }\n\n  function closeProject(uint256 _id) public {\n    // Fetch the Project\n    Project memory _project = projects[_id];\n    //Fetch the Project Owner\n    address _owner = _project.owner;\n    // Check if the owner is trying to close the project\n    require(_owner == msg.sender, 'Only Owner can close the project.');\n    // Check if the project is open or not\n    require(_project.exists == true, 'Project is in open state.');\n    // Check endDate\n    if (block.timestamp > _project.endDate) {\n      _project.exists = false;\n      projects[_id] = _project;\n      this.dispatchFunds(_project.id);\n      emit ProjectEnded(_project.id, _project.name, _project.balance);\n    }\n    require(block.timestamp < _project.endDate, 'Project is still active.');\n    // Close the project\n    _project.exists = false;\n    projects[_id] = _project;\n    // Trigger the Event\n    emit ProjectEnded(_project.id, _project.name, _project.balance);\n  }\n\n  function balanceOfProjects() public view returns (uint256) {\n    return address(this).balance;\n  }\n\n  function dispatchFunds(uint256 _id) public payable {\n    Project memory _project = projects[_id];\n    payable(_project.owner).transfer(_project.balance);\n    projects[_id] = _project;\n  }\n}\n",
  "sourcePath": "D:/Personal Project/Blockchain/crowd-funding/src/contracts/Crowdfunding.sol",
  "compiler": {
    "name": "solc",
    "version": "0.8.4+commit.c7e474f2.Emscripten.clang"
  },
  "schemaVersion": "3.4.1",
  "updatedAt": "2021-05-27T10:19:18.763Z",
  "devdoc": {
    "kind": "dev",
    "methods": {},
    "version": 1
  },
  "userdoc": {
    "kind": "user",
    "methods": {},
    "version": 1
  }
}