{
  "contractName": "Crowdfunding",
  "abi": [
    {
      "inputs": [],
      "stateMutability": "nonpayable",
      "type": "constructor"
    },
    {
      "anonymous": false,
      "inputs": [
        {
          "indexed": false,
          "internalType": "uint256",
          "name": "id",
          "type": "uint256"
        },
        {
          "indexed": false,
          "internalType": "string",
          "name": "name",
          "type": "string"
        },
        {
          "indexed": false,
          "internalType": "string",
          "name": "desc",
          "type": "string"
        },
        {
          "indexed": false,
          "internalType": "address",
          "name": "owner",
          "type": "address"
        },
        {
          "indexed": false,
          "internalType": "uint256",
          "name": "endDate",
          "type": "uint256"
        },
        {
          "indexed": false,
          "internalType": "bool",
          "name": "exists",
          "type": "bool"
        },
        {
          "indexed": false,
          "internalType": "uint256",
          "name": "balance",
          "type": "uint256"
        },
        {
          "indexed": false,
          "internalType": "uint256",
          "name": "target",
          "type": "uint256"
        }
      ],
      "name": "ProjectCreated",
      "type": "event"
    },
    {
      "anonymous": false,
      "inputs": [
        {
          "indexed": false,
          "internalType": "uint256",
          "name": "id",
          "type": "uint256"
        },
        {
          "indexed": false,
          "internalType": "string",
          "name": "name",
          "type": "string"
        },
        {
          "indexed": false,
          "internalType": "uint256",
          "name": "balance",
          "type": "uint256"
        }
      ],
      "name": "ProjectEnded",
      "type": "event"
    },
    {
      "anonymous": false,
      "inputs": [
        {
          "indexed": false,
          "internalType": "uint256",
          "name": "id",
          "type": "uint256"
        },
        {
          "indexed": false,
          "internalType": "string",
          "name": "name",
          "type": "string"
        },
        {
          "indexed": false,
          "internalType": "string",
          "name": "desc",
          "type": "string"
        },
        {
          "indexed": false,
          "internalType": "address",
          "name": "owner",
          "type": "address"
        },
        {
          "indexed": false,
          "internalType": "uint256",
          "name": "endDate",
          "type": "uint256"
        },
        {
          "indexed": false,
          "internalType": "bool",
          "name": "exists",
          "type": "bool"
        },
        {
          "indexed": false,
          "internalType": "uint256",
          "name": "balance",
          "type": "uint256"
        },
        {
          "indexed": false,
          "internalType": "uint256",
          "name": "target",
          "type": "uint256"
        }
      ],
      "name": "ProjectFunded",
      "type": "event"
    },
    {
      "inputs": [],
      "name": "name",
      "outputs": [
        {
          "internalType": "string",
          "name": "",
          "type": "string"
        }
      ],
      "stateMutability": "view",
      "type": "function"
    },
    {
      "inputs": [],
      "name": "projectCount",
      "outputs": [
        {
          "internalType": "uint256",
          "name": "",
          "type": "uint256"
        }
      ],
      "stateMutability": "view",
      "type": "function"
    },
    {
      "inputs": [
        {
          "internalType": "uint256",
          "name": "",
          "type": "uint256"
        }
      ],
      "name": "projects",
      "outputs": [
        {
          "internalType": "uint256",
          "name": "id",
          "type": "uint256"
        },
        {
          "internalType": "string",
          "name": "name",
          "type": "string"
        },
        {
          "internalType": "string",
          "name": "desc",
          "type": "string"
        },
        {
          "internalType": "address",
          "name": "owner",
          "type": "address"
        },
        {
          "internalType": "uint256",
          "name": "endDate",
          "type": "uint256"
        },
        {
          "internalType": "bool",
          "name": "exists",
          "type": "bool"
        },
        {
          "internalType": "uint256",
          "name": "balance",
          "type": "uint256"
        },
        {
          "internalType": "uint256",
          "name": "target",
          "type": "uint256"
        }
      ],
      "stateMutability": "view",
      "type": "function"
    },
    {
      "inputs": [
        {
          "internalType": "string",
          "name": "_name",
          "type": "string"
        },
        {
          "internalType": "string",
          "name": "_desc",
          "type": "string"
        },
        {
          "internalType": "uint256",
          "name": "_endDate",
          "type": "uint256"
        },
        {
          "internalType": "uint256",
          "name": "_target",
          "type": "uint256"
        }
      ],
      "name": "createProject",
      "outputs": [],
      "stateMutability": "nonpayable",
      "type": "function"
    },
    {
      "inputs": [
        {
          "internalType": "uint256",
          "name": "_id",
          "type": "uint256"
        }
      ],
      "name": "getProjectById",
      "outputs": [
        {
          "internalType": "string",
          "name": "_name",
          "type": "string"
        },
        {
          "internalType": "string",
          "name": "_desc",
          "type": "string"
        },
        {
          "internalType": "uint256",
          "name": "_target",
          "type": "uint256"
        },
        {
          "internalType": "uint256",
          "name": "_endDate",
          "type": "uint256"
        },
        {
          "internalType": "address",
          "name": "_owner",
          "type": "address"
        },
        {
          "internalType": "uint256",
          "name": "_balance",
          "type": "uint256"
        }
      ],
      "stateMutability": "view",
      "type": "function"
    },
    {
      "inputs": [
        {
          "internalType": "uint256",
          "name": "_id",
          "type": "uint256"
        }
      ],
      "name": "fundProject",
      "outputs": [],
      "stateMutability": "payable",
      "type": "function"
    },
    {
      "inputs": [
        {
          "internalType": "uint256",
          "name": "_id",
          "type": "uint256"
        }
      ],
      "name": "closeProject",
      "outputs": [],
      "stateMutability": "nonpayable",
      "type": "function"
    },
    {
      "inputs": [],
      "name": "balanceOfProjects",
      "outputs": [
        {
          "internalType": "uint256",
          "name": "",
          "type": "uint256"
        }
      ],
      "stateMutability": "view",
      "type": "function"
    },
    {
      "inputs": [
        {
          "internalType": "uint256",
          "name": "_id",
          "type": "uint256"
        }
      ],
      "name": "dispatchFunds",
      "outputs": [],
      "stateMutability": "payable",
      "type": "function"
    }
  ],
  "bytecode": "0x608060405260006001553480156200001657600080fd5b506040518060400160405280601d81526020017f4d61726b6574706c61636520666f722063726f77642066756e64696e6700000081525060009080519060200190620000649291906200006b565b5062000180565b82805462000079906200011b565b90600052602060002090601f0160209004810192826200009d5760008555620000e9565b82601f10620000b857805160ff1916838001178555620000e9565b82800160010185558215620000e9579182015b82811115620000e8578251825591602001919060010190620000cb565b5b509050620000f89190620000fc565b5090565b5b8082111562000117576000816000905550600101620000fd565b5090565b600060028204905060018216806200013457607f821691505b602082108114156200014b576200014a62000151565b5b50919050565b7f4e487b7100000000000000000000000000000000000000000000000000000000600052602260045260246000fd5b611fc280620001906000396000f3fe6080604052600436106100865760003560e01c806393dc12e61161005957806393dc12e61461014157806394ba97091461016a578063b0036ac714610193578063bee5cdca146101af578063d9812581146101f157610086565b806306fdde031461008b578063107046bd146100b657806336fbad26146100fa5780636c563abe14610125575b600080fd5b34801561009757600080fd5b506100a061021c565b6040516100ad91906118c3565b60405180910390f35b3480156100c257600080fd5b506100dd60048036038101906100d89190611753565b6102aa565b6040516100f1989796959493929190611abb565b60405180910390f35b34801561010657600080fd5b5061010f61042f565b60405161011c9190611a14565b60405180910390f35b61013f600480360381019061013a9190611753565b610435565b005b34801561014d57600080fd5b5061016860048036038101906101639190611753565b610908565b005b34801561017657600080fd5b50610191600480360381019061018c91906116c0565b610ee1565b005b6101ad60048036038101906101a89190611753565b6110a7565b005b3480156101bb57600080fd5b506101d660048036038101906101d19190611753565b6113ba565b6040516101e8969594939291906118e5565b60405180910390f35b3480156101fd57600080fd5b50610206611598565b6040516102139190611a14565b60405180910390f35b6000805461022990611ce9565b80601f016020809104026020016040519081016040528092919081815260200182805461025590611ce9565b80156102a25780601f10610277576101008083540402835291602001916102a2565b820191906000526020600020905b81548152906001019060200180831161028557829003601f168201915b505050505081565b60026020528060005260406000206000915090508060000154908060010180546102d390611ce9565b80601f01602080910402602001604051908101604052809291908181526020018280546102ff90611ce9565b801561034c5780601f106103215761010080835404028352916020019161034c565b820191906000526020600020905b81548152906001019060200180831161032f57829003601f168201915b50505050509080600201805461036190611ce9565b80601f016020809104026020016040519081016040528092919081815260200182805461038d90611ce9565b80156103da5780601f106103af576101008083540402835291602001916103da565b820191906000526020600020905b8154815290600101906020018083116103bd57829003601f168201915b5050505050908060030160009054906101000a900473ffffffffffffffffffffffffffffffffffffffff16908060040154908060050160009054906101000a900460ff16908060060154908060070154905088565b60015481565b600060026000838152602001908152602001600020604051806101000160405290816000820154815260200160018201805461047090611ce9565b80601f016020809104026020016040519081016040528092919081815260200182805461049c90611ce9565b80156104e95780601f106104be576101008083540402835291602001916104e9565b820191906000526020600020905b8154815290600101906020018083116104cc57829003601f168201915b5050505050815260200160028201805461050290611ce9565b80601f016020809104026020016040519081016040528092919081815260200182805461052e90611ce9565b801561057b5780601f106105505761010080835404028352916020019161057b565b820191906000526020600020905b81548152906001019060200180831161055e57829003601f168201915b505050505081526020016003820160009054906101000a900473ffffffffffffffffffffffffffffffffffffffff1673ffffffffffffffffffffffffffffffffffffffff1673ffffffffffffffffffffffffffffffffffffffff168152602001600482015481526020016005820160009054906101000a900460ff16151515158152602001600682015481526020016007820154815250509050600081606001519050600082600001511180156106385750600154826000015111155b61064157600080fd5b81608001514210610687576040517f08c379a000000000000000000000000000000000000000000000000000000000815260040161067e906119f4565b60405180910390fd5b3373ffffffffffffffffffffffffffffffffffffffff168173ffffffffffffffffffffffffffffffffffffffff1614156106f6576040517f08c379a00000000000000000000000000000000000000000000000000000000081526004016106ed90611994565b60405180910390fd5b8160a0015161073a576040517f08c379a000000000000000000000000000000000000000000000000000000000815260040161073190611974565b60405180910390fd5b6000341161074757600080fd5b348260c0018181516107599190611bf7565b91508181525050816002600085815260200190815260200160002060008201518160000155602082015181600101908051906020019061079a9291906115a0565b5060408201518160020190805190602001906107b79291906115a0565b5060608201518160030160006101000a81548173ffffffffffffffffffffffffffffffffffffffff021916908373ffffffffffffffffffffffffffffffffffffffff1602179055506080820151816004015560a08201518160050160006101000a81548160ff02191690831515021790555060c0820151816006015560e08201518160070155905050346003600085815260200190815260200160002060003373ffffffffffffffffffffffffffffffffffffffff1673ffffffffffffffffffffffffffffffffffffffff16815260200190815260200160002060008282546108a09190611bf7565b925050819055507f36d362f344b370ff4a36908fb306e5a24c3bcf51dca8a6136366e0b485cec7a16001548360200151846040015133866080015160018860c001518960e001516040516108fb989796959493929190611abb565b60405180910390a1505050565b600060026000838152602001908152602001600020604051806101000160405290816000820154815260200160018201805461094390611ce9565b80601f016020809104026020016040519081016040528092919081815260200182805461096f90611ce9565b80156109bc5780601f10610991576101008083540402835291602001916109bc565b820191906000526020600020905b81548152906001019060200180831161099f57829003601f168201915b505050505081526020016002820180546109d590611ce9565b80601f0160208091040260200160405190810160405280929190818152602001828054610a0190611ce9565b8015610a4e5780601f10610a2357610100808354040283529160200191610a4e565b820191906000526020600020905b815481529060010190602001808311610a3157829003601f168201915b505050505081526020016003820160009054906101000a900473ffffffffffffffffffffffffffffffffffffffff1673ffffffffffffffffffffffffffffffffffffffff1673ffffffffffffffffffffffffffffffffffffffff168152602001600482015481526020016005820160009054906101000a900460ff161515151581526020016006820154815260200160078201548152505090506000816060015190503373ffffffffffffffffffffffffffffffffffffffff168173ffffffffffffffffffffffffffffffffffffffff1614610b5f576040517f08c379a0000000000000000000000000000000000000000000000000000000008152600401610b56906119d4565b60405180910390fd5b600115158260a00151151514610baa576040517f08c379a0000000000000000000000000000000000000000000000000000000008152600401610ba190611954565b60405180910390fd5b8160800151421115610d5e5760008260a00190151590811515815250508160026000858152602001908152602001600020600082015181600001556020820151816001019080519060200190610c019291906115a0565b506040820151816002019080519060200190610c1e9291906115a0565b5060608201518160030160006101000a81548173ffffffffffffffffffffffffffffffffffffffff021916908373ffffffffffffffffffffffffffffffffffffffff1602179055506080820151816004015560a08201518160050160006101000a81548160ff02191690831515021790555060c0820151816006015560e082015181600701559050503073ffffffffffffffffffffffffffffffffffffffff1663b0036ac783600001516040518263ffffffff1660e01b8152600401610ce49190611a14565b600060405180830381600087803b158015610cfe57600080fd5b505af1158015610d12573d6000803e3d6000fd5b505050507f0d77a7c0d00f191be30313fd4836ac7cefb3488b8c158ae53fc717a858675770826000015183602001518460c00151604051610d5593929190611b47565b60405180910390a15b81608001514210610da4576040517f08c379a0000000000000000000000000000000000000000000000000000000008152600401610d9b906119b4565b60405180910390fd5b60008260a00190151590811515815250508160026000858152602001908152602001600020600082015181600001556020820151816001019080519060200190610def9291906115a0565b506040820151816002019080519060200190610e0c9291906115a0565b5060608201518160030160006101000a81548173ffffffffffffffffffffffffffffffffffffffff021916908373ffffffffffffffffffffffffffffffffffffffff1602179055506080820151816004015560a08201518160050160006101000a81548160ff02191690831515021790555060c0820151816006015560e082015181600701559050507f0d77a7c0d00f191be30313fd4836ac7cefb3488b8c158ae53fc717a858675770826000015183602001518460c00151604051610ed493929190611b47565b60405180910390a1505050565b6000845111610eef57600080fd5b60008111610efc57600080fd5b60008211610f0957600080fd5b60016000815480929190610f1c90611d4c565b919050555060405180610100016040528060015481526020018581526020018481526020013373ffffffffffffffffffffffffffffffffffffffff1681526020018381526020016001151581526020016000815260200182815250600260006001548152602001908152602001600020600082015181600001556020820151816001019080519060200190610fb29291906115a0565b506040820151816002019080519060200190610fcf9291906115a0565b5060608201518160030160006101000a81548173ffffffffffffffffffffffffffffffffffffffff021916908373ffffffffffffffffffffffffffffffffffffffff1602179055506080820151816004015560a08201518160050160006101000a81548160ff02191690831515021790555060c0820151816006015560e082015181600701559050507f318ae2105e4ed352c2e4ff310936d968690d612618b61006796a8a7709a1b008600154858533866001600088604051611099989796959493929190611a2f565b60405180910390a150505050565b60006002600083815260200190815260200160002060405180610100016040529081600082015481526020016001820180546110e290611ce9565b80601f016020809104026020016040519081016040528092919081815260200182805461110e90611ce9565b801561115b5780601f106111305761010080835404028352916020019161115b565b820191906000526020600020905b81548152906001019060200180831161113e57829003601f168201915b5050505050815260200160028201805461117490611ce9565b80601f01602080910402602001604051908101604052809291908181526020018280546111a090611ce9565b80156111ed5780601f106111c2576101008083540402835291602001916111ed565b820191906000526020600020905b8154815290600101906020018083116111d057829003601f168201915b505050505081526020016003820160009054906101000a900473ffffffffffffffffffffffffffffffffffffffff1673ffffffffffffffffffffffffffffffffffffffff1673ffffffffffffffffffffffffffffffffffffffff168152602001600482015481526020016005820160009054906101000a900460ff16151515158152602001600682015481526020016007820154815250509050806060015173ffffffffffffffffffffffffffffffffffffffff166108fc8260c001519081150290604051600060405180830381858888f193505050501580156112d5573d6000803e3d6000fd5b5080600260008481526020019081526020016000206000820151816000015560208201518160010190805190602001906113109291906115a0565b50604082015181600201908051906020019061132d9291906115a0565b5060608201518160030160006101000a81548173ffffffffffffffffffffffffffffffffffffffff021916908373ffffffffffffffffffffffffffffffffffffffff1602179055506080820151816004015560a08201518160050160006101000a81548160ff02191690831515021790555060c0820151816006015560e082015181600701559050505050565b6060806000806000806002600088815260200190815260200160002060010160026000898152602001908152602001600020600201600260008a815260200190815260200160002060070154600260008b815260200190815260200160002060040154600260008c815260200190815260200160002060030160009054906101000a900473ffffffffffffffffffffffffffffffffffffffff16600260008d81526020019081526020016000206006015485805461147790611ce9565b80601f01602080910402602001604051908101604052809291908181526020018280546114a390611ce9565b80156114f05780601f106114c5576101008083540402835291602001916114f0565b820191906000526020600020905b8154815290600101906020018083116114d357829003601f168201915b5050505050955084805461150390611ce9565b80601f016020809104026020016040519081016040528092919081815260200182805461152f90611ce9565b801561157c5780601f106115515761010080835404028352916020019161157c565b820191906000526020600020905b81548152906001019060200180831161155f57829003601f168201915b5050505050945095509550955095509550955091939550919395565b600047905090565b8280546115ac90611ce9565b90600052602060002090601f0160209004810192826115ce5760008555611615565b82601f106115e757805160ff1916838001178555611615565b82800160010185558215611615579182015b828111156116145782518255916020019190600101906115f9565b5b5090506116229190611626565b5090565b5b8082111561163f576000816000905550600101611627565b5090565b600061165661165184611baa565b611b85565b90508281526020810184848401111561166e57600080fd5b611679848285611ca7565b509392505050565b600082601f83011261169257600080fd5b81356116a2848260208601611643565b91505092915050565b6000813590506116ba81611f75565b92915050565b600080600080608085870312156116d657600080fd5b600085013567ffffffffffffffff8111156116f057600080fd5b6116fc87828801611681565b945050602085013567ffffffffffffffff81111561171957600080fd5b61172587828801611681565b9350506040611736878288016116ab565b9250506060611747878288016116ab565b91505092959194509250565b60006020828403121561176557600080fd5b6000611773848285016116ab565b91505092915050565b61178581611c4d565b82525050565b61179481611c5f565b82525050565b6117a381611c95565b82525050565b60006117b482611bdb565b6117be8185611be6565b93506117ce818560208601611cb6565b6117d781611e22565b840191505092915050565b60006117ef601983611be6565b91506117fa82611e33565b602082019050919050565b6000611812601b83611be6565b915061181d82611e5c565b602082019050919050565b6000611835603383611be6565b915061184082611e85565b604082019050919050565b6000611858601883611be6565b915061186382611ed4565b602082019050919050565b600061187b602183611be6565b915061188682611efd565b604082019050919050565b600061189e601283611be6565b91506118a982611f4c565b602082019050919050565b6118bd81611c8b565b82525050565b600060208201905081810360008301526118dd81846117a9565b905092915050565b600060c08201905081810360008301526118ff81896117a9565b9050818103602083015261191381886117a9565b905061192260408301876118b4565b61192f60608301866118b4565b61193c608083018561177c565b61194960a08301846118b4565b979650505050505050565b6000602082019050818103600083015261196d816117e2565b9050919050565b6000602082019050818103600083015261198d81611805565b9050919050565b600060208201905081810360008301526119ad81611828565b9050919050565b600060208201905081810360008301526119cd8161184b565b9050919050565b600060208201905081810360008301526119ed8161186e565b9050919050565b60006020820190508181036000830152611a0d81611891565b9050919050565b6000602082019050611a2960008301846118b4565b92915050565b600061010082019050611a45600083018b6118b4565b8181036020830152611a57818a6117a9565b90508181036040830152611a6b81896117a9565b9050611a7a606083018861177c565b611a8760808301876118b4565b611a9460a083018661178b565b611aa160c083018561179a565b611aae60e08301846118b4565b9998505050505050505050565b600061010082019050611ad1600083018b6118b4565b8181036020830152611ae3818a6117a9565b90508181036040830152611af781896117a9565b9050611b06606083018861177c565b611b1360808301876118b4565b611b2060a083018661178b565b611b2d60c08301856118b4565b611b3a60e08301846118b4565b9998505050505050505050565b6000606082019050611b5c60008301866118b4565b8181036020830152611b6e81856117a9565b9050611b7d60408301846118b4565b949350505050565b6000611b8f611ba0565b9050611b9b8282611d1b565b919050565b6000604051905090565b600067ffffffffffffffff821115611bc557611bc4611df3565b5b611bce82611e22565b9050602081019050919050565b600081519050919050565b600082825260208201905092915050565b6000611c0282611c8b565b9150611c0d83611c8b565b9250827fffffffffffffffffffffffffffffffffffffffffffffffffffffffffffffffff03821115611c4257611c41611d95565b5b828201905092915050565b6000611c5882611c6b565b9050919050565b60008115159050919050565b600073ffffffffffffffffffffffffffffffffffffffff82169050919050565b6000819050919050565b6000611ca082611c8b565b9050919050565b82818337600083830152505050565b60005b83811015611cd4578082015181840152602081019050611cb9565b83811115611ce3576000848401525b50505050565b60006002820490506001821680611d0157607f821691505b60208210811415611d1557611d14611dc4565b5b50919050565b611d2482611e22565b810181811067ffffffffffffffff82111715611d4357611d42611df3565b5b80604052505050565b6000611d5782611c8b565b91507fffffffffffffffffffffffffffffffffffffffffffffffffffffffffffffffff821415611d8a57611d89611d95565b5b600182019050919050565b7f4e487b7100000000000000000000000000000000000000000000000000000000600052601160045260246000fd5b7f4e487b7100000000000000000000000000000000000000000000000000000000600052602260045260246000fd5b7f4e487b7100000000000000000000000000000000000000000000000000000000600052604160045260246000fd5b6000601f19601f8301169050919050565b7f50726f6a65637420697320696e206f70656e2073746174652e00000000000000600082015250565b7f50726f6a6563742043616d706169676e2068617320656e6465642e0000000000600082015250565b7f4f776e65722063616e27742066756e64207468652070726f6a6563742063726560008201527f61746564206279207468656d73656c7665732e00000000000000000000000000602082015250565b7f50726f6a656374206973207374696c6c206163746976652e0000000000000000600082015250565b7f4f6e6c79204f776e65722063616e20636c6f7365207468652070726f6a65637460008201527f2e00000000000000000000000000000000000000000000000000000000000000602082015250565b7f50726f6a65637420697320636c6f7365642e0000000000000000000000000000600082015250565b611f7e81611c8b565b8114611f8957600080fd5b5056fea2646970667358221220327815cf9e4a417fd8dc88c9cbf2113eb353bea8b8f5af3606504c1f5c12dbef64736f6c63430008040033",
  "immutableReferences": {},
  "source": "// SPDX-License-Identifier: GPL-3.0\npragma solidity ^0.8.1;\n\n/* \nTODO\n    - Create a Project : createProject\n    - Fetch all Projects : projects\n    - Read a Project : getProjectById\n    - Fund an existing Project : fundProject\n    - Close the Project manually by owner or if endDate expires : closeProject\n    - Get total Contract Balance : balanceOfProjects\n    - Dispatch the ethers to project Owner : dispatchFunds\n*/\ncontract Crowdfunding {\n  string public name;\n  uint256 public projectCount = 0;\n  mapping(uint256 => Project) public projects;\n  mapping(uint256 => mapping(address => uint256)) contributors;\n\n  struct Project {\n    uint256 id;\n    string name;\n    string desc;\n    address owner;\n    uint256 endDate;\n    bool exists;\n    uint256 balance;\n    uint256 target;\n  }\n\n  event ProjectCreated(\n    uint256 id,\n    string name,\n    string desc,\n    address owner,\n    uint256 endDate,\n    bool exists,\n    uint256 balance,\n    uint256 target\n  );\n\n  event ProjectFunded(\n    uint256 id,\n    string name,\n    string desc,\n    address owner,\n    uint256 endDate,\n    bool exists,\n    uint256 balance,\n    uint256 target\n  );\n\n  event ProjectEnded(uint256 id, string name, uint256 balance);\n\n  constructor() {\n    name = 'Marketplace for crowd funding';\n  }\n\n  function createProject(\n    string memory _name,\n    string memory _desc,\n    uint256 _endDate,\n    uint256 _target\n  ) public {\n    // Make sure parameters are correct and supplied\n    // Require a valid name\n    require(bytes(_name).length > 0);\n    // Require a valid target\n    require(_target > 0);\n    // Require a valid endDate\n    require(_endDate > 0);\n    //Increment Project Count\n    projectCount++;\n    // Create the project\n    projects[projectCount] = Project(\n      projectCount,\n      _name,\n      _desc,\n      msg.sender,\n      _endDate,\n      true,\n      0,\n      _target\n    );\n    // trigger an event\n    emit ProjectCreated(projectCount, _name, _desc, msg.sender, _endDate, true, 0, _target);\n  }\n\n  function getProjectById(uint256 _id)\n    public\n    view\n    returns (\n      string memory _name,\n      string memory _desc,\n      uint256 _target,\n      uint256 _endDate,\n      address _owner,\n      uint256 _balance\n    )\n  {\n    //TODO Check if project Exists\n    return (\n      projects[_id].name,\n      projects[_id].desc,\n      projects[_id].target,\n      projects[_id].endDate,\n      projects[_id].owner,\n      projects[_id].balance\n    );\n  }\n\n  function fundProject(uint256 _id) public payable {\n    // Fetch the Project\n    Project memory _project = projects[_id];\n    //Fetch the Project Owner\n    address _owner = _project.owner;\n    // Make sure the project has valid ID\n    require(_project.id > 0 && _project.id <= projectCount);\n    // Check if the Project end Date is greater than now\n    require(block.timestamp < _project.endDate, 'Project is closed.');\n    // Check if the owner is trying to fund and reject it\n    require(_owner != msg.sender, \"Owner can't fund the project created by themselves.\");\n    // Make Sure the Project is active\n    require(_project.exists, 'Project Campaign has ended.');\n    //Sent ether must be greater than 0\n    require(msg.value > 0);\n    // Fund it\n    _project.balance += msg.value;\n    // Update the Project\n    projects[_id] = _project;\n    // contributors can again send the money\n    contributors[_id][msg.sender] += msg.value;\n    // Trigger the event\n    emit ProjectFunded(\n      projectCount,\n      _project.name,\n      _project.desc,\n      msg.sender,\n      _project.endDate,\n      true,\n      _project.balance,\n      _project.target\n    );\n  }\n\n  function closeProject(uint256 _id) public {\n    // Fetch the Project\n    Project memory _project = projects[_id];\n    //Fetch the Project Owner\n    address _owner = _project.owner;\n    // Check if the owner is trying to close the project\n    require(_owner == msg.sender, 'Only Owner can close the project.');\n    // Check if the project is open or not\n    require(_project.exists == true, 'Project is in open state.');\n    // Check endDate\n    if (block.timestamp > _project.endDate) {\n      _project.exists = false;\n      projects[_id] = _project;\n      this.dispatchFunds(_project.id);\n      emit ProjectEnded(_project.id, _project.name, _project.balance);\n    }\n    require(block.timestamp < _project.endDate, 'Project is still active.');\n    // Close the project\n    _project.exists = false;\n    projects[_id] = _project;\n    // Trigger the Event\n    emit ProjectEnded(_project.id, _project.name, _project.balance);\n  }\n\n  function balanceOfProjects() public view returns (uint256) {\n    return address(this).balance;\n  }\n\n  function dispatchFunds(uint256 _id) public payable {\n    Project memory _project = projects[_id];\n    payable(_project.owner).transfer(_project.balance);\n    projects[_id] = _project;\n  }\n}\n",
  "sourcePath": "D:/Personal Project/Blockchain/crowd-funding/src/contracts/Crowdfunding.sol",
  "compiler": {
    "name": "solc",
    "version": "0.8.4+commit.c7e474f2.Emscripten.clang"
  },
  "schemaVersion": "3.4.1",
  "updatedAt": "2021-05-27T19:39:42.248Z",
  "devdoc": {
    "kind": "dev",
    "methods": {},
    "version": 1
  },
  "userdoc": {
    "kind": "user",
    "methods": {},
    "version": 1
  }
}