{
  "contractName": "Crowdfunding",
  "abi": [
    {
      "inputs": [],
      "stateMutability": "nonpayable",
      "type": "constructor"
    },
    {
      "anonymous": false,
      "inputs": [
        {
          "indexed": false,
          "internalType": "uint256",
          "name": "id",
          "type": "uint256"
        },
        {
          "indexed": false,
          "internalType": "string",
          "name": "name",
          "type": "string"
        },
        {
          "indexed": false,
          "internalType": "string",
          "name": "desc",
          "type": "string"
        },
        {
          "indexed": false,
          "internalType": "address",
          "name": "owner",
          "type": "address"
        },
        {
          "indexed": false,
          "internalType": "uint256",
          "name": "endDate",
          "type": "uint256"
        },
        {
          "indexed": false,
          "internalType": "bool",
          "name": "exists",
          "type": "bool"
        },
        {
          "indexed": false,
          "internalType": "uint256",
          "name": "balance",
          "type": "uint256"
        },
        {
          "indexed": false,
          "internalType": "uint256",
          "name": "target",
          "type": "uint256"
        }
      ],
      "name": "ProjectCreated",
      "type": "event"
    },
    {
      "inputs": [],
      "name": "name",
      "outputs": [
        {
          "internalType": "string",
          "name": "",
          "type": "string"
        }
      ],
      "stateMutability": "view",
      "type": "function"
    },
    {
      "inputs": [],
      "name": "projectCount",
      "outputs": [
        {
          "internalType": "uint256",
          "name": "",
          "type": "uint256"
        }
      ],
      "stateMutability": "view",
      "type": "function"
    },
    {
      "inputs": [
        {
          "internalType": "string",
          "name": "_name",
          "type": "string"
        },
        {
          "internalType": "string",
          "name": "_desc",
          "type": "string"
        },
        {
          "internalType": "uint256",
          "name": "_endDate",
          "type": "uint256"
        },
        {
          "internalType": "uint256",
          "name": "_target",
          "type": "uint256"
        }
      ],
      "name": "createProject",
      "outputs": [],
      "stateMutability": "nonpayable",
      "type": "function"
    }
  ],
  "bytecode": "0x6080604052600060025534801561001557600080fd5b506040518060400160405280601d81526020017f4d61726b6574706c61636520666f722063726f77642066756e64696e67000000815250600190805190602001906100619291906100a7565b50336000806101000a81548173ffffffffffffffffffffffffffffffffffffffff021916908373ffffffffffffffffffffffffffffffffffffffff1602179055506101ab565b8280546100b39061014a565b90600052602060002090601f0160209004810192826100d5576000855561011c565b82601f106100ee57805160ff191683800117855561011c565b8280016001018555821561011c579182015b8281111561011b578251825591602001919060010190610100565b5b509050610129919061012d565b5090565b5b8082111561014657600081600090555060010161012e565b5090565b6000600282049050600182168061016257607f821691505b602082108114156101765761017561017c565b5b50919050565b7f4e487b7100000000000000000000000000000000000000000000000000000000600052602260045260246000fd5b61088e806101ba6000396000f3fe608060405234801561001057600080fd5b50600436106100415760003560e01c806306fdde031461004657806336fbad261461006457806394ba970914610082575b600080fd5b61004e61009e565b60405161005b9190610520565b60405180910390f35b61006c61012c565b6040516100799190610542565b60405180910390f35b61009c60048036038101906100979190610418565b610132565b005b600180546100ab906106f7565b80601f01602080910402602001604051908101604052809291908181526020018280546100d7906106f7565b80156101245780601f106100f957610100808354040283529160200191610124565b820191906000526020600020905b81548152906001019060200180831161010757829003601f168201915b505050505081565b60025481565b600084511161014057600080fd5b6000811161014d57600080fd5b6000821161015a57600080fd5b6002600081548092919061016d9061075a565b919050555060405180610100016040528060025481526020018581526020018481526020013373ffffffffffffffffffffffffffffffffffffffff16815260200183815260200160011515815260200160008152602001828152506003600060025481526020019081526020016000206000820151816000015560208201518160010190805190602001906102039291906102f8565b5060408201518160020190805190602001906102209291906102f8565b5060608201518160030160006101000a81548173ffffffffffffffffffffffffffffffffffffffff021916908373ffffffffffffffffffffffffffffffffffffffff1602179055506080820151816004015560a08201518160050160006101000a81548160ff02191690831515021790555060c0820151816006015560e082015181600701559050507f318ae2105e4ed352c2e4ff310936d968690d612618b61006796a8a7709a1b0086002548585338660016000886040516102ea98979695949392919061055d565b60405180910390a150505050565b828054610304906106f7565b90600052602060002090601f016020900481019282610326576000855561036d565b82601f1061033f57805160ff191683800117855561036d565b8280016001018555821561036d579182015b8281111561036c578251825591602001919060010190610351565b5b50905061037a919061037e565b5090565b5b8082111561039757600081600090555060010161037f565b5090565b60006103ae6103a98461060e565b6105e9565b9050828152602081018484840111156103c657600080fd5b6103d18482856106b5565b509392505050565b600082601f8301126103ea57600080fd5b81356103fa84826020860161039b565b91505092915050565b60008135905061041281610841565b92915050565b6000806000806080858703121561042e57600080fd5b600085013567ffffffffffffffff81111561044857600080fd5b610454878288016103d9565b945050602085013567ffffffffffffffff81111561047157600080fd5b61047d878288016103d9565b935050604061048e87828801610403565b925050606061049f87828801610403565b91505092959194509250565b6104b48161065b565b82525050565b6104c38161066d565b82525050565b6104d2816106a3565b82525050565b60006104e38261063f565b6104ed818561064a565b93506104fd8185602086016106c4565b61050681610830565b840191505092915050565b61051a81610699565b82525050565b6000602082019050818103600083015261053a81846104d8565b905092915050565b60006020820190506105576000830184610511565b92915050565b600061010082019050610573600083018b610511565b8181036020830152610585818a6104d8565b9050818103604083015261059981896104d8565b90506105a860608301886104ab565b6105b56080830187610511565b6105c260a08301866104ba565b6105cf60c08301856104c9565b6105dc60e0830184610511565b9998505050505050505050565b60006105f3610604565b90506105ff8282610729565b919050565b6000604051905090565b600067ffffffffffffffff82111561062957610628610801565b5b61063282610830565b9050602081019050919050565b600081519050919050565b600082825260208201905092915050565b600061066682610679565b9050919050565b60008115159050919050565b600073ffffffffffffffffffffffffffffffffffffffff82169050919050565b6000819050919050565b60006106ae82610699565b9050919050565b82818337600083830152505050565b60005b838110156106e25780820151818401526020810190506106c7565b838111156106f1576000848401525b50505050565b6000600282049050600182168061070f57607f821691505b60208210811415610723576107226107d2565b5b50919050565b61073282610830565b810181811067ffffffffffffffff8211171561075157610750610801565b5b80604052505050565b600061076582610699565b91507fffffffffffffffffffffffffffffffffffffffffffffffffffffffffffffffff821415610798576107976107a3565b5b600182019050919050565b7f4e487b7100000000000000000000000000000000000000000000000000000000600052601160045260246000fd5b7f4e487b7100000000000000000000000000000000000000000000000000000000600052602260045260246000fd5b7f4e487b7100000000000000000000000000000000000000000000000000000000600052604160045260246000fd5b6000601f19601f8301169050919050565b61084a81610699565b811461085557600080fd5b5056fea264697066735822122081f1e561dc91c1f845350b3d1d1fc6a72133cb3383cb7186e2aae0396a6c044764736f6c63430008040033",
  "immutableReferences": {},
  "source": "// SPDX-License-Identifier: GPL-3.0\npragma solidity ^0.8.1;\n/* \nTODO\n    - Create a Project : createProject\n    - Fetch all Projects : \n    - Read a Project : getProjectById\n    - Fund an existing Project\n    - Close the Project manually or if endDate expires\n\n*/\ncontract Crowdfunding {\n    address contractOwner;\n    string public name;\n    uint public projectCount = 0;\n    mapping(uint => Project) projects;\n\n    struct Project {\n        uint id;\n        string name;\n        string desc;\n        address owner;\n        uint256 endDate;\n        bool exists;\n        uint balance;\n        uint target;\n    }\n\n    event ProjectCreated(\n        uint id,\n        string name,\n        string desc,\n        address owner,\n        uint256 endDate,\n        bool exists,\n        uint balance,\n        uint target\n    );\n\n    constructor() {\n        name = \"Marketplace for crowd funding\";\n        contractOwner = msg.sender;\n    }\n\n    function createProject(string memory _name, string memory _desc, uint256 _endDate, uint _target) public {\n        // Make sure parameters are correct and supplied\n        // Require a valid name\n        require(bytes(_name).length > 0);\n        // Require a valid target\n        require(_target > 0);\n        // Require a valid endDate\n        require(_endDate > 0);\n        //Increment Project Count\n        projectCount ++;\n        // Create the project\n        projects[projectCount] = Project(projectCount, _name, _desc, msg.sender, _endDate, true, 0, _target);\n        // trigger an event\n        emit ProjectCreated(projectCount, _name, _desc, msg.sender, _endDate, true, 0, _target);\n    }\n\n}\n",
  "sourcePath": "D:/Personal Project/Blockchain/crowd-funding/src/contracts/Crowdfunding.sol",
  "compiler": {
    "name": "solc",
    "version": "0.8.4+commit.c7e474f2.Emscripten.clang"
  },
  "schemaVersion": "3.4.1",
  "updatedAt": "2021-05-26T08:33:42.674Z",
  "devdoc": {
    "kind": "dev",
    "methods": {},
    "version": 1
  },
  "userdoc": {
    "kind": "user",
    "methods": {},
    "version": 1
  }
}